{
  "contractName": "BasicLocker",
  "abi": [
    {
      "anonymous": false,
      "inputs": [
        {
          "indexed": true,
          "internalType": "address",
          "name": "previousOwner",
          "type": "address"
        },
        {
          "indexed": true,
          "internalType": "address",
          "name": "newOwner",
          "type": "address"
        }
      ],
      "name": "OwnershipTransferred",
      "type": "event"
    },
    {
      "inputs": [],
      "name": "owner",
      "outputs": [
        {
          "internalType": "address",
          "name": "",
          "type": "address"
        }
      ],
      "stateMutability": "view",
      "type": "function"
    },
    {
      "inputs": [],
      "name": "renounceOwnership",
      "outputs": [],
      "stateMutability": "nonpayable",
      "type": "function"
    },
    {
      "inputs": [],
      "name": "safetyLocker",
      "outputs": [
        {
          "internalType": "address",
          "name": "",
          "type": "address"
        }
      ],
      "stateMutability": "view",
      "type": "function"
    },
    {
      "inputs": [
        {
          "internalType": "address",
          "name": "newOwner",
          "type": "address"
        }
      ],
      "name": "transferOwnership",
      "outputs": [],
      "stateMutability": "nonpayable",
      "type": "function"
    },
    {
      "inputs": [
        {
          "internalType": "address",
          "name": "target",
          "type": "address"
        }
      ],
      "name": "getLockType",
      "outputs": [
        {
          "internalType": "enum LockLib.LockType",
          "name": "",
          "type": "uint8"
        },
        {
          "internalType": "uint16",
          "name": "",
          "type": "uint16"
        },
        {
          "internalType": "bool",
          "name": "",
          "type": "bool"
        }
      ],
      "stateMutability": "view",
      "type": "function"
    },
    {
      "inputs": [
        {
          "internalType": "address",
          "name": "_safetyLocker",
          "type": "address"
        }
      ],
      "name": "setSafetyLocker",
      "outputs": [],
      "stateMutability": "nonpayable",
      "type": "function"
    },
    {
      "inputs": [
        {
          "internalType": "address",
          "name": "target",
          "type": "address"
        },
        {
          "internalType": "enum LockLib.LockType",
          "name": "lockType",
          "type": "uint8"
        },
        {
          "internalType": "uint16",
          "name": "penaltyRateOver1000",
          "type": "uint16"
        },
        {
          "internalType": "bool",
          "name": "permanent",
          "type": "bool"
        }
      ],
      "name": "lockAddress",
      "outputs": [
        {
          "internalType": "bool",
          "name": "",
          "type": "bool"
        }
      ],
      "stateMutability": "nonpayable",
      "type": "function"
    },
    {
      "inputs": [
        {
          "internalType": "address[]",
          "name": "addresses",
          "type": "address[]"
        }
      ],
      "name": "multiBlackList",
      "outputs": [],
      "stateMutability": "nonpayable",
      "type": "function"
    },
    {
      "inputs": [
        {
          "internalType": "address[]",
          "name": "addresses",
          "type": "address[]"
        }
      ],
      "name": "multiWhitelist",
      "outputs": [],
      "stateMutability": "nonpayable",
      "type": "function"
    },
    {
      "inputs": [
        {
          "internalType": "address",
          "name": "source",
          "type": "address"
        },
        {
          "internalType": "address",
          "name": "dest",
          "type": "address"
        }
      ],
      "name": "lockOrGetPenalty",
      "outputs": [
        {
          "internalType": "bool",
          "name": "",
          "type": "bool"
        },
        {
          "internalType": "uint256",
          "name": "",
          "type": "uint256"
        }
      ],
      "stateMutability": "nonpayable",
      "type": "function"
    }
  ],
  "bytecode": "0x608060405260006100146100b760201b60201c565b9050806000806101000a81548173ffffffffffffffffffffffffffffffffffffffff021916908373ffffffffffffffffffffffffffffffffffffffff1602179055508073ffffffffffffffffffffffffffffffffffffffff16600073ffffffffffffffffffffffffffffffffffffffff167f8be0079c531659141344cd1fd0a4f28419497f9722a3daafe3b4186f6b6457e060405160405180910390a3506100bf565b600033905090565b611792806100ce6000396000f3fe608060405234801561001057600080fd5b506004361061009e5760003560e01c8063aa61a9dd11610066578063aa61a9dd1461023d578063b1ea3309146102c0578063d0685e2914610339578063d4e390971461037d578063f2fde38b146103fd5761009e565b80634b3eac9a146100a3578063715018a6146100ed5780638719e226146100f75780638da5cb5b146101705780639190031b146101ba575b600080fd5b6100ab610441565b604051808273ffffffffffffffffffffffffffffffffffffffff1673ffffffffffffffffffffffffffffffffffffffff16815260200191505060405180910390f35b6100f5610467565b005b61016e6004803603602081101561010d57600080fd5b810190808035906020019064010000000081111561012a57600080fd5b82018360208201111561013c57600080fd5b8035906020019184602083028401116401000000008311171561015e57600080fd5b90919293919293905050506105ef565b005b6101786107a6565b604051808273ffffffffffffffffffffffffffffffffffffffff1673ffffffffffffffffffffffffffffffffffffffff16815260200191505060405180910390f35b610223600480360360808110156101d057600080fd5b81019080803573ffffffffffffffffffffffffffffffffffffffff169060200190929190803560ff169060200190929190803561ffff1690602001909291908035151590602001909291905050506107cf565b604051808215151515815260200191505060405180910390f35b61029f6004803603604081101561025357600080fd5b81019080803573ffffffffffffffffffffffffffffffffffffffff169060200190929190803573ffffffffffffffffffffffffffffffffffffffff169060200190929190505050610b09565b60405180831515151581526020018281526020019250505060405180910390f35b610337600480360360208110156102d657600080fd5b81019080803590602001906401000000008111156102f357600080fd5b82018360208201111561030557600080fd5b8035906020019184602083028401116401000000008311171561032757600080fd5b9091929391929390505050610f4b565b005b61037b6004803603602081101561034f57600080fd5b81019080803573ffffffffffffffffffffffffffffffffffffffff169060200190929190505050611199565b005b6103bf6004803603602081101561039357600080fd5b81019080803573ffffffffffffffffffffffffffffffffffffffff1690602001909291905050506113f0565b6040518084600a8111156103cf57fe5b60ff1681526020018361ffff1661ffff16815260200182151515158152602001935050505060405180910390f35b61043f6004803603602081101561041357600080fd5b81019080803573ffffffffffffffffffffffffffffffffffffffff1690602001909291905050506114ce565b005b600260009054906101000a900473ffffffffffffffffffffffffffffffffffffffff1681565b61046f6116db565b73ffffffffffffffffffffffffffffffffffffffff166000809054906101000a900473ffffffffffffffffffffffffffffffffffffffff1673ffffffffffffffffffffffffffffffffffffffff1614610530576040517f08c379a00000000000000000000000000000000000000000000000000000000081526004018080602001828103825260208152602001807f4f776e61626c653a2063616c6c6572206973206e6f7420746865206f776e657281525060200191505060405180910390fd5b600073ffffffffffffffffffffffffffffffffffffffff166000809054906101000a900473ffffffffffffffffffffffffffffffffffffffff1673ffffffffffffffffffffffffffffffffffffffff167f8be0079c531659141344cd1fd0a4f28419497f9722a3daafe3b4186f6b6457e060405160405180910390a360008060006101000a81548173ffffffffffffffffffffffffffffffffffffffff021916908373ffffffffffffffffffffffffffffffffffffffff160217905550565b6000600160006105fd6116db565b73ffffffffffffffffffffffffffffffffffffffff1673ffffffffffffffffffffffffffffffffffffffff16815260200190815260200160002060000160009054906101000a900460ff169050600a8081111561065657fe5b81600a81111561066257fe5b148061068457506008600a81111561067657fe5b81600a81111561068257fe5b145b6106f6576040517f08c379a000000000000000000000000000000000000000000000000000000000815260040180806020018281038252601f8152602001807f4c6f636b65723a204f6e6c792063616c6c2066726f6d20424c2061646d696e0081525060200191505060405180910390fd5b60008090505b838390508110156107a05760046001600086868581811061071957fe5b9050602002013573ffffffffffffffffffffffffffffffffffffffff1673ffffffffffffffffffffffffffffffffffffffff1673ffffffffffffffffffffffffffffffffffffffff16815260200190815260200160002060000160006101000a81548160ff0219169083600a81111561078e57fe5b021790555080806001019150506106fc565b50505050565b60008060009054906101000a900473ffffffffffffffffffffffffffffffffffffffff16905090565b60006107d96116db565b73ffffffffffffffffffffffffffffffffffffffff166000809054906101000a900473ffffffffffffffffffffffffffffffffffffffff1673ffffffffffffffffffffffffffffffffffffffff161461089a576040517f08c379a00000000000000000000000000000000000000000000000000000000081526004018080602001828103825260208152602001807f4f776e61626c653a2063616c6c6572206973206e6f7420746865206f776e657281525060200191505060405180910390fd5b600073ffffffffffffffffffffffffffffffffffffffff168573ffffffffffffffffffffffffffffffffffffffff16141561093d576040517f08c379a000000000000000000000000000000000000000000000000000000000815260040180806020018281038252601e8152602001807f4c6f636b65723a20696e76616c6964207461726765742061646472657373000081525060200191505060405180910390fd5b600160008673ffffffffffffffffffffffffffffffffffffffff1673ffffffffffffffffffffffffffffffffffffffff16815260200190815260200160002060000160039054906101000a900460ff16156109e3576040517f08c379a000000000000000000000000000000000000000000000000000000000815260040180806020018281038252602181526020018061173c6021913960400191505060405180910390fd5b83600160008773ffffffffffffffffffffffffffffffffffffffff1673ffffffffffffffffffffffffffffffffffffffff16815260200190815260200160002060000160006101000a81548160ff0219169083600a811115610a4157fe5b021790555082600160008773ffffffffffffffffffffffffffffffffffffffff1673ffffffffffffffffffffffffffffffffffffffff16815260200190815260200160002060000160016101000a81548161ffff021916908361ffff16021790555081600160008773ffffffffffffffffffffffffffffffffffffffff1673ffffffffffffffffffffffffffffffffffffffff16815260200190815260200160002060000160036101000a81548160ff02191690831515021790555060019050949350505050565b600080610b146116e3565b600160008673ffffffffffffffffffffffffffffffffffffffff1673ffffffffffffffffffffffffffffffffffffffff1681526020019081526020016000206040518060600160405290816000820160009054906101000a900460ff16600a811115610b7c57fe5b600a811115610b8757fe5b81526020016000820160019054906101000a900461ffff1661ffff1661ffff1681526020016000820160039054906101000a900460ff1615151515815250509050610bd06116e3565b600160008673ffffffffffffffffffffffffffffffffffffffff1673ffffffffffffffffffffffffffffffffffffffff1681526020019081526020016000206040518060600160405290816000820160009054906101000a900460ff16600a811115610c3857fe5b600a811115610c4357fe5b81526020016000820160019054906101000a900461ffff1661ffff1661ffff1681526020016000820160039054906101000a900460ff16151515158152505090506003600a811115610c9157fe5b8260000151600a811115610ca157fe5b14158015610cca57506004600a811115610cb757fe5b8260000151600a811115610cc757fe5b14155b610d3c576040517f08c379a000000000000000000000000000000000000000000000000000000000815260040180806020018281038252601a8152602001807f4c6f636b65723a206e6f7420616c6c6f77656420736f7572636500000000000081525060200191505060405180910390fd5b6002600a811115610d4957fe5b8160000151600a811115610d5957fe5b14158015610d8257506004600a811115610d6f57fe5b8160000151600a811115610d7f57fe5b14155b610df4576040517f08c379a000000000000000000000000000000000000000000000000000000000815260040180806020018281038252601f8152602001807f4c6f636b65723a206e6f7420616c6c6f7765642064657374696e6174696f6e0081525060200191505060405180910390fd5b600073ffffffffffffffffffffffffffffffffffffffff16600260009054906101000a900473ffffffffffffffffffffffffffffffffffffffff1673ffffffffffffffffffffffffffffffffffffffff1614610f3857600260009054906101000a900473ffffffffffffffffffffffffffffffffffffffff1673ffffffffffffffffffffffffffffffffffffffff1663f867a90787876040518363ffffffff1660e01b8152600401808373ffffffffffffffffffffffffffffffffffffffff1673ffffffffffffffffffffffffffffffffffffffff1681526020018273ffffffffffffffffffffffffffffffffffffffff1673ffffffffffffffffffffffffffffffffffffffff16815260200192505050600060405180830381600087803b158015610f1f57600080fd5b505af1158015610f33573d6000803e3d6000fd5b505050505b6000808090509350935050509250929050565b600060016000610f596116db565b73ffffffffffffffffffffffffffffffffffffffff1673ffffffffffffffffffffffffffffffffffffffff16815260200190815260200160002060000160009054906101000a900460ff169050600a80811115610fb257fe5b81600a811115610fbe57fe5b1480610fe057506008600a811115610fd257fe5b81600a811115610fde57fe5b145b611052576040517f08c379a000000000000000000000000000000000000000000000000000000000815260040180806020018281038252601f8152602001807f4c6f636b65723a204f6e6c792063616c6c2066726f6d20424c2061646d696e0081525060200191505060405180910390fd5b60008090505b83839050811015611193576004600a81111561107057fe5b6001600086868581811061108057fe5b9050602002013573ffffffffffffffffffffffffffffffffffffffff1673ffffffffffffffffffffffffffffffffffffffff1673ffffffffffffffffffffffffffffffffffffffff16815260200190815260200160002060000160009054906101000a900460ff16600a8111156110f357fe5b14156111865760006001600086868581811061110b57fe5b9050602002013573ffffffffffffffffffffffffffffffffffffffff1673ffffffffffffffffffffffffffffffffffffffff1673ffffffffffffffffffffffffffffffffffffffff16815260200190815260200160002060000160006101000a81548160ff0219169083600a81111561118057fe5b02179055505b8080600101915050611058565b50505050565b6111a16116db565b73ffffffffffffffffffffffffffffffffffffffff166000809054906101000a900473ffffffffffffffffffffffffffffffffffffffff1673ffffffffffffffffffffffffffffffffffffffff1614611262576040517f08c379a00000000000000000000000000000000000000000000000000000000081526004018080602001828103825260208152602001807f4f776e61626c653a2063616c6c6572206973206e6f7420746865206f776e657281525060200191505060405180910390fd5b80600260006101000a81548173ffffffffffffffffffffffffffffffffffffffff021916908373ffffffffffffffffffffffffffffffffffffffff160217905550600073ffffffffffffffffffffffffffffffffffffffff16600260009054906101000a900473ffffffffffffffffffffffffffffffffffffffff1673ffffffffffffffffffffffffffffffffffffffff16146113ed578073ffffffffffffffffffffffffffffffffffffffff16638f3037ef6040518163ffffffff1660e01b815260040160206040518083038186803b15801561133f57600080fd5b505afa158015611353573d6000803e3d6000fd5b505050506040513d602081101561136957600080fd5b81019080805190602001909291905050506113ec576040517f08c379a00000000000000000000000000000000000000000000000000000000081526004018080602001828103825260108152602001807f426164207361666574794c6f636b65720000000000000000000000000000000081525060200191505060405180910390fd5b5b50565b60008060006113fd6116e3565b600160008673ffffffffffffffffffffffffffffffffffffffff1673ffffffffffffffffffffffffffffffffffffffff1681526020019081526020016000206040518060600160405290816000820160009054906101000a900460ff16600a81111561146557fe5b600a81111561147057fe5b81526020016000820160019054906101000a900461ffff1661ffff1661ffff1681526020016000820160039054906101000a900460ff1615151515815250509050806000015181602001518260400151935093509350509193909250565b6114d66116db565b73ffffffffffffffffffffffffffffffffffffffff166000809054906101000a900473ffffffffffffffffffffffffffffffffffffffff1673ffffffffffffffffffffffffffffffffffffffff1614611597576040517f08c379a00000000000000000000000000000000000000000000000000000000081526004018080602001828103825260208152602001807f4f776e61626c653a2063616c6c6572206973206e6f7420746865206f776e657281525060200191505060405180910390fd5b600073ffffffffffffffffffffffffffffffffffffffff168173ffffffffffffffffffffffffffffffffffffffff16141561161d576040517f08c379a00000000000000000000000000000000000000000000000000000000081526004018080602001828103825260268152602001806117166026913960400191505060405180910390fd5b8073ffffffffffffffffffffffffffffffffffffffff166000809054906101000a900473ffffffffffffffffffffffffffffffffffffffff1673ffffffffffffffffffffffffffffffffffffffff167f8be0079c531659141344cd1fd0a4f28419497f9722a3daafe3b4186f6b6457e060405160405180910390a3806000806101000a81548173ffffffffffffffffffffffffffffffffffffffff021916908373ffffffffffffffffffffffffffffffffffffffff16021790555050565b600033905090565b60405180606001604052806000600a8111156116fb57fe5b8152602001600061ffff168152602001600015158152509056fe4f776e61626c653a206e6577206f776e657220697320746865207a65726f20616464726573734c6f636b65723a2061646472657373206c6f636b206973207065726d616e656e74a2646970667358221220b769c5203a80e8e0c129cbe4b6ad8f075c580b14c47b8acf925152bff57607f064736f6c63430006060033",
  "immutableReferences": {},
  "source": "pragma solidity >=0.6.0 <0.8.0;\n\nimport \"@openzeppelin/contracts/access/Ownable.sol\";\nimport \"@openzeppelin/contracts/math/Math.sol\";\nimport \"@openzeppelin/contracts/token/ERC20/SafeERC20.sol\";\nimport \"../../common/Constants.sol\";\nimport \"./LockLib.sol\";\nimport \"./ISafetyLocker.sol\";\nimport \"./ILocker.sol\";\n\n/**\n * Owner can lock unlock temporarily, or make them permanent.\n * It can also add penalty to certain activities.\n * Addresses can be whitelisted or have different penalties.\n * This must be inherited by the token itself.\n */\ncontract BasicLocker is ILocker, Ownable {\n    // Putting all conditions in one mapping to prevent unnecessary lookup and save gas\n    mapping (address=>LockLib.TargetPolicy) locked;\n    address public safetyLocker;\n\n    function getLockType(address target) external view returns(LockLib.LockType, uint16, bool) {\n        LockLib.TargetPolicy memory res = locked[target];\n        return (res.lockType, res.penaltyRateOver1000, res.isPermanent);\n    }\n\n    function setSafetyLocker(address _safetyLocker) external onlyOwner() {\n        safetyLocker = _safetyLocker;\n        if (safetyLocker != address(0)) {\n            require(ISafetyLocker(_safetyLocker).IsSafetyLocker(), \"Bad safetyLocker\");\n        }\n    }\n\n    /**\n     */\n    function lockAddress(address target, LockLib.LockType lockType,\n        uint16 penaltyRateOver1000, bool permanent)\n    external\n    onlyOwner()\n    returns(bool) {\n        require(target != address(0), \"Locker: invalid target address\");\n        require(!locked[target].isPermanent, \"Locker: address lock is permanent\");\n\n        locked[target].lockType = lockType;\n        locked[target].penaltyRateOver1000 = penaltyRateOver1000;\n        locked[target].isPermanent = permanent;\n        return true;\n    }\n\n    function multiBlackList(address[] calldata addresses) external onlyLockAdmin() {\n        for(uint i=0; i < addresses.length; i++) {\n            locked[addresses[i]].lockType = LockLib.LockType.NoTransaction;\n        }\n    }\n\n    function multiWhitelist(address[] calldata addresses) external onlyLockAdmin() {\n        for(uint i=0; i < addresses.length; i++) {\n            // Do not change other lock types\n            if (locked[addresses[i]].lockType == LockLib.LockType.NoTransaction) {\n                locked[addresses[i]].lockType = LockLib.LockType.None;\n            }\n        }\n    }\n\n    /**\n     * @dev Fails if transaction is not allowed. Otherwise returns the penalty.\n     */\n    function lockOrGetPenalty(address source, address dest) external virtual override\n    returns (bool, uint256) {\n        LockLib.TargetPolicy memory sourcePolicy = locked[source];\n        LockLib.TargetPolicy memory destPolicy = locked[dest];\n\n        require(sourcePolicy.lockType != LockLib.LockType.NoOut &&\n            sourcePolicy.lockType != LockLib.LockType.NoTransaction, \"Locker: not allowed source\");\n        require(destPolicy.lockType != LockLib.LockType.NoIn &&\n            destPolicy.lockType != LockLib.LockType.NoTransaction, \"Locker: not allowed destination\");\n\n        if (safetyLocker != address(0)) {\n            ISafetyLocker(safetyLocker).verifyTransfer(source, dest);\n        }\n        return (false, 0); // No pentaly  so unused\n    }\n\n    /**\n        * @dev Throws if called by any account other than lock admin or master.\n     */\n    modifier onlyLockAdmin() {\n        LockLib.LockType senderState = locked[_msgSender()].lockType;\n        require(senderState == LockLib.LockType.BlacklistAdmin ||\n            senderState == LockLib.LockType.Master, \"Locker: Only call from BL admin\");\n        _;\n    }\n}\n",
  "sourcePath": "/home/naiemk/nk/open-staking/contracts/token/safety/BasicLocker.sol",
  "compiler": {
    "name": "solc",
    "version": "0.6.6+commit.6c089d02.Emscripten.clang"
  },
  "schemaVersion": "3.3.2",
  "updatedAt": "2021-03-03T02:45:46.177Z",
  "devdoc": {
    "methods": {
      "lockOrGetPenalty(address,address)": {
        "details": "Fails if transaction is not allowed. Otherwise returns the penalty."
      },
      "owner()": {
        "details": "Returns the address of the current owner."
      },
      "renounceOwnership()": {
        "details": "Leaves the contract without owner. It will not be possible to call `onlyOwner` functions anymore. Can only be called by the current owner.     * NOTE: Renouncing ownership will leave the contract without an owner, thereby removing any functionality that is only available to the owner."
      },
      "transferOwnership(address)": {
        "details": "Transfers ownership of the contract to a new account (`newOwner`). Can only be called by the current owner."
      }
    }
  },
  "userdoc": {
    "methods": {},
    "notice": "Owner can lock unlock temporarily, or make them permanent. It can also add penalty to certain activities. Addresses can be whitelisted or have different penalties. This must be inherited by the token itself."
  }
}