{
  "contractName": "EvnAntiBot",
  "abi": [
    {
      "anonymous": false,
      "inputs": [
        {
          "indexed": true,
          "internalType": "address",
          "name": "previousOwner",
          "type": "address"
        },
        {
          "indexed": true,
          "internalType": "address",
          "name": "newOwner",
          "type": "address"
        }
      ],
      "name": "OwnershipTransferred",
      "type": "event"
    },
    {
      "inputs": [
        {
          "internalType": "address",
          "name": "",
          "type": "address"
        }
      ],
      "name": "blacklist",
      "outputs": [
        {
          "internalType": "bool",
          "name": "",
          "type": "bool"
        }
      ],
      "stateMutability": "view",
      "type": "function"
    },
    {
      "inputs": [],
      "name": "ignoreBlacklist",
      "outputs": [
        {
          "internalType": "bool",
          "name": "",
          "type": "bool"
        }
      ],
      "stateMutability": "view",
      "type": "function"
    },
    {
      "inputs": [],
      "name": "isWethToken0",
      "outputs": [
        {
          "internalType": "bool",
          "name": "",
          "type": "bool"
        }
      ],
      "stateMutability": "view",
      "type": "function"
    },
    {
      "inputs": [],
      "name": "owner",
      "outputs": [
        {
          "internalType": "address",
          "name": "",
          "type": "address"
        }
      ],
      "stateMutability": "view",
      "type": "function"
    },
    {
      "inputs": [],
      "name": "renounceOwnership",
      "outputs": [],
      "stateMutability": "nonpayable",
      "type": "function"
    },
    {
      "inputs": [],
      "name": "startTime",
      "outputs": [
        {
          "internalType": "uint256",
          "name": "",
          "type": "uint256"
        }
      ],
      "stateMutability": "view",
      "type": "function"
    },
    {
      "inputs": [
        {
          "internalType": "address",
          "name": "",
          "type": "address"
        }
      ],
      "name": "superWhitelist",
      "outputs": [
        {
          "internalType": "bool",
          "name": "",
          "type": "bool"
        }
      ],
      "stateMutability": "view",
      "type": "function"
    },
    {
      "inputs": [],
      "name": "token",
      "outputs": [
        {
          "internalType": "address",
          "name": "",
          "type": "address"
        }
      ],
      "stateMutability": "view",
      "type": "function"
    },
    {
      "inputs": [
        {
          "internalType": "address",
          "name": "newOwner",
          "type": "address"
        }
      ],
      "name": "transferOwnership",
      "outputs": [],
      "stateMutability": "nonpayable",
      "type": "function"
    },
    {
      "inputs": [],
      "name": "weth",
      "outputs": [
        {
          "internalType": "address",
          "name": "",
          "type": "address"
        }
      ],
      "stateMutability": "view",
      "type": "function"
    },
    {
      "inputs": [],
      "name": "wethPool",
      "outputs": [
        {
          "internalType": "address",
          "name": "",
          "type": "address"
        }
      ],
      "stateMutability": "view",
      "type": "function"
    },
    {
      "inputs": [
        {
          "internalType": "address",
          "name": "",
          "type": "address"
        }
      ],
      "name": "whitelist",
      "outputs": [
        {
          "internalType": "bool",
          "name": "",
          "type": "bool"
        }
      ],
      "stateMutability": "view",
      "type": "function"
    },
    {
      "inputs": [
        {
          "internalType": "address",
          "name": "_token",
          "type": "address"
        },
        {
          "internalType": "address",
          "name": "_weth",
          "type": "address"
        }
      ],
      "name": "addWethPool",
      "outputs": [],
      "stateMutability": "nonpayable",
      "type": "function"
    },
    {
      "inputs": [
        {
          "internalType": "bool",
          "name": "shouldIgnore",
          "type": "bool"
        }
      ],
      "name": "setIgnoreBlacklist",
      "outputs": [],
      "stateMutability": "nonpayable",
      "type": "function"
    },
    {
      "inputs": [
        {
          "internalType": "address",
          "name": "_address",
          "type": "address"
        }
      ],
      "name": "addSuperWhitelist",
      "outputs": [],
      "stateMutability": "nonpayable",
      "type": "function"
    },
    {
      "inputs": [
        {
          "internalType": "address",
          "name": "_address",
          "type": "address"
        }
      ],
      "name": "removeSuperWhitelist",
      "outputs": [],
      "stateMutability": "nonpayable",
      "type": "function"
    },
    {
      "inputs": [
        {
          "internalType": "address",
          "name": "_address",
          "type": "address"
        }
      ],
      "name": "addWhitelist",
      "outputs": [],
      "stateMutability": "nonpayable",
      "type": "function"
    },
    {
      "inputs": [
        {
          "internalType": "address",
          "name": "_address",
          "type": "address"
        }
      ],
      "name": "removeWhitelist",
      "outputs": [],
      "stateMutability": "nonpayable",
      "type": "function"
    },
    {
      "inputs": [
        {
          "internalType": "address",
          "name": "_address",
          "type": "address"
        }
      ],
      "name": "addBlacklist",
      "outputs": [],
      "stateMutability": "nonpayable",
      "type": "function"
    },
    {
      "inputs": [
        {
          "internalType": "address",
          "name": "_address",
          "type": "address"
        }
      ],
      "name": "removeBlacklist",
      "outputs": [],
      "stateMutability": "nonpayable",
      "type": "function"
    },
    {
      "inputs": [
        {
          "internalType": "uint256",
          "name": "_timestamp",
          "type": "uint256"
        },
        {
          "internalType": "uint256",
          "name": "_maxGasPrice",
          "type": "uint256"
        }
      ],
      "name": "open",
      "outputs": [],
      "stateMutability": "nonpayable",
      "type": "function"
    },
    {
      "inputs": [
        {
          "internalType": "address",
          "name": "source",
          "type": "address"
        },
        {
          "internalType": "address",
          "name": "dest",
          "type": "address"
        }
      ],
      "name": "verifyTransfer",
      "outputs": [],
      "stateMutability": "nonpayable",
      "type": "function"
    },
    {
      "inputs": [
        {
          "internalType": "address",
          "name": "user",
          "type": "address"
        },
        {
          "internalType": "uint256",
          "name": "amount",
          "type": "uint256"
        }
      ],
      "name": "verifyUserAddress",
      "outputs": [],
      "stateMutability": "nonpayable",
      "type": "function"
    },
    {
      "inputs": [],
      "name": "IsSafetyLocker",
      "outputs": [
        {
          "internalType": "bool",
          "name": "",
          "type": "bool"
        }
      ],
      "stateMutability": "pure",
      "type": "function"
    }
  ],
  "bytecode": "0x60806040526000600460006101000a81548160ff021916908315150217905550600061002f6100d260201b60201c565b9050806000806101000a81548173ffffffffffffffffffffffffffffffffffffffff021916908373ffffffffffffffffffffffffffffffffffffffff1602179055508073ffffffffffffffffffffffffffffffffffffffff16600073ffffffffffffffffffffffffffffffffffffffff167f8be0079c531659141344cd1fd0a4f28419497f9722a3daafe3b4186f6b6457e060405160405180910390a3506100da565b600033905090565b6129ae806100e96000396000f3fe608060405234801561001057600080fd5b50600436106101585760003560e01c80639b19251a116100c3578063ef0b69dd1161007c578063ef0b69dd146105cd578063f2fde38b146105ef578063f80f5dd514610633578063f867a90714610677578063f9f92be4146106db578063fc0c546a1461073757610158565b80639b19251a146103df5780639cfe42da1461043b578063d8f8b1c41461047f578063da7755ee146104c9578063dc93b0ca14610525578063eb91e6511461058957610158565b8063715018a611610115578063715018a6146102b957806378c8cda7146102c357806378e97925146103075780638b0c2ec0146103255780638da5cb5b146103735780638f3037ef146103bd57610158565b80631943b0261461015d5780631a6b2a151461017f5780633fc8cef3146101c35780634082de671461020d5780634b73c3d4146102455780636c22032d14610289575b600080fd5b610165610781565b604051808215151515815260200191505060405180910390f35b6101c16004803603602081101561019557600080fd5b81019080803573ffffffffffffffffffffffffffffffffffffffff169060200190929190505050610794565b005b6101cb610952565b604051808273ffffffffffffffffffffffffffffffffffffffff1673ffffffffffffffffffffffffffffffffffffffff16815260200191505060405180910390f35b6102436004803603604081101561022357600080fd5b810190808035906020019092919080359060200190929190505050610978565b005b6102876004803603602081101561025b57600080fd5b81019080803573ffffffffffffffffffffffffffffffffffffffff169060200190929190505050610b45565b005b6102b76004803603602081101561029f57600080fd5b81019080803515159060200190929190505050610d0c565b005b6102c1610df2565b005b610305600480360360208110156102d957600080fd5b81019080803573ffffffffffffffffffffffffffffffffffffffff169060200190929190505050610f7a565b005b61030f611138565b6040518082815260200191505060405180910390f35b6103716004803603604081101561033b57600080fd5b81019080803573ffffffffffffffffffffffffffffffffffffffff1690602001909291908035906020019092919050505061113e565b005b61037b6111c6565b604051808273ffffffffffffffffffffffffffffffffffffffff1673ffffffffffffffffffffffffffffffffffffffff16815260200191505060405180910390f35b6103c56111ef565b604051808215151515815260200191505060405180910390f35b610421600480360360208110156103f557600080fd5b81019080803573ffffffffffffffffffffffffffffffffffffffff1690602001909291905050506111f8565b604051808215151515815260200191505060405180910390f35b61047d6004803603602081101561045157600080fd5b81019080803573ffffffffffffffffffffffffffffffffffffffff169060200190929190505050611218565b005b6104876113de565b604051808273ffffffffffffffffffffffffffffffffffffffff1673ffffffffffffffffffffffffffffffffffffffff16815260200191505060405180910390f35b61050b600480360360208110156104df57600080fd5b81019080803573ffffffffffffffffffffffffffffffffffffffff169060200190929190505050611404565b604051808215151515815260200191505060405180910390f35b6105876004803603604081101561053b57600080fd5b81019080803573ffffffffffffffffffffffffffffffffffffffff169060200190929190803573ffffffffffffffffffffffffffffffffffffffff169060200190929190505050611424565b005b6105cb6004803603602081101561059f57600080fd5b81019080803573ffffffffffffffffffffffffffffffffffffffff1690602001909291905050506118e9565b005b6105d5611aa7565b604051808215151515815260200191505060405180910390f35b6106316004803603602081101561060557600080fd5b81019080803573ffffffffffffffffffffffffffffffffffffffff169060200190929190505050611aba565b005b6106756004803603602081101561064957600080fd5b81019080803573ffffffffffffffffffffffffffffffffffffffff169060200190929190505050611cc7565b005b6106d96004803603604081101561068d57600080fd5b81019080803573ffffffffffffffffffffffffffffffffffffffff169060200190929190803573ffffffffffffffffffffffffffffffffffffffff169060200190929190505050611e8e565b005b61071d600480360360208110156106f157600080fd5b81019080803573ffffffffffffffffffffffffffffffffffffffff16906020019092919050505061212b565b604051808215151515815260200191505060405180910390f35b61073f61214b565b604051808273ffffffffffffffffffffffffffffffffffffffff1673ffffffffffffffffffffffffffffffffffffffff16815260200191505060405180910390f35b600460009054906101000a900460ff1681565b61079c612171565b73ffffffffffffffffffffffffffffffffffffffff166000809054906101000a900473ffffffffffffffffffffffffffffffffffffffff1673ffffffffffffffffffffffffffffffffffffffff161461085d576040517f08c379a00000000000000000000000000000000000000000000000000000000081526004018080602001828103825260208152602001807f4f776e61626c653a2063616c6c6572206973206e6f7420746865206f776e657281525060200191505060405180910390fd5b600073ffffffffffffffffffffffffffffffffffffffff168173ffffffffffffffffffffffffffffffffffffffff161415610900576040517f08c379a00000000000000000000000000000000000000000000000000000000081526004018080602001828103825260188152602001807f41646472657373206d7573742062652070726f7669646564000000000000000081525060200191505060405180910390fd5b600260008273ffffffffffffffffffffffffffffffffffffffff1673ffffffffffffffffffffffffffffffffffffffff16815260200190815260200160002060006101000a81549060ff021916905550565b600660009054906101000a900473ffffffffffffffffffffffffffffffffffffffff1681565b610980612171565b73ffffffffffffffffffffffffffffffffffffffff166000809054906101000a900473ffffffffffffffffffffffffffffffffffffffff1673ffffffffffffffffffffffffffffffffffffffff1614610a41576040517f08c379a00000000000000000000000000000000000000000000000000000000081526004018080602001828103825260208152602001807f4f776e61626c653a2063616c6c6572206973206e6f7420746865206f776e657281525060200191505060405180910390fd5b6000821415610ab8576040517f08c379a000000000000000000000000000000000000000000000000000000000815260040180806020018281038252600e8152602001807f426164205f74696d657374616d7000000000000000000000000000000000000081525060200191505060405180910390fd5b6445d964b800811015610b33576040517f08c379a00000000000000000000000000000000000000000000000000000000081526004018080602001828103825260148152602001807f5f6d6178476173507269636520746f6f206c6f7700000000000000000000000081525060200191505060405180910390fd5b81600881905550806009819055505050565b610b4d612171565b73ffffffffffffffffffffffffffffffffffffffff166000809054906101000a900473ffffffffffffffffffffffffffffffffffffffff1673ffffffffffffffffffffffffffffffffffffffff1614610c0e576040517f08c379a00000000000000000000000000000000000000000000000000000000081526004018080602001828103825260208152602001807f4f776e61626c653a2063616c6c6572206973206e6f7420746865206f776e657281525060200191505060405180910390fd5b600073ffffffffffffffffffffffffffffffffffffffff168173ffffffffffffffffffffffffffffffffffffffff161415610cb1576040517f08c379a00000000000000000000000000000000000000000000000000000000081526004018080602001828103825260188152602001807f41646472657373206d7573742062652070726f7669646564000000000000000081525060200191505060405180910390fd5b6001600260008373ffffffffffffffffffffffffffffffffffffffff1673ffffffffffffffffffffffffffffffffffffffff16815260200190815260200160002060006101000a81548160ff02191690831515021790555050565b610d14612171565b73ffffffffffffffffffffffffffffffffffffffff166000809054906101000a900473ffffffffffffffffffffffffffffffffffffffff1673ffffffffffffffffffffffffffffffffffffffff1614610dd5576040517f08c379a00000000000000000000000000000000000000000000000000000000081526004018080602001828103825260208152602001807f4f776e61626c653a2063616c6c6572206973206e6f7420746865206f776e657281525060200191505060405180910390fd5b80600460006101000a81548160ff02191690831515021790555050565b610dfa612171565b73ffffffffffffffffffffffffffffffffffffffff166000809054906101000a900473ffffffffffffffffffffffffffffffffffffffff1673ffffffffffffffffffffffffffffffffffffffff1614610ebb576040517f08c379a00000000000000000000000000000000000000000000000000000000081526004018080602001828103825260208152602001807f4f776e61626c653a2063616c6c6572206973206e6f7420746865206f776e657281525060200191505060405180910390fd5b600073ffffffffffffffffffffffffffffffffffffffff166000809054906101000a900473ffffffffffffffffffffffffffffffffffffffff1673ffffffffffffffffffffffffffffffffffffffff167f8be0079c531659141344cd1fd0a4f28419497f9722a3daafe3b4186f6b6457e060405160405180910390a360008060006101000a81548173ffffffffffffffffffffffffffffffffffffffff021916908373ffffffffffffffffffffffffffffffffffffffff160217905550565b610f82612171565b73ffffffffffffffffffffffffffffffffffffffff166000809054906101000a900473ffffffffffffffffffffffffffffffffffffffff1673ffffffffffffffffffffffffffffffffffffffff1614611043576040517f08c379a00000000000000000000000000000000000000000000000000000000081526004018080602001828103825260208152602001807f4f776e61626c653a2063616c6c6572206973206e6f7420746865206f776e657281525060200191505060405180910390fd5b600073ffffffffffffffffffffffffffffffffffffffff168173ffffffffffffffffffffffffffffffffffffffff1614156110e6576040517f08c379a00000000000000000000000000000000000000000000000000000000081526004018080602001828103825260188152602001807f41646472657373206d7573742062652070726f7669646564000000000000000081525060200191505060405180910390fd5b600360008273ffffffffffffffffffffffffffffffffffffffff1673ffffffffffffffffffffffffffffffffffffffff16815260200190815260200160002060006101000a81549060ff021916905550565b60085481565b600260008373ffffffffffffffffffffffffffffffffffffffff1673ffffffffffffffffffffffffffffffffffffffff16815260200190815260200160002060009054906101000a900460ff1615611195576111c2565b61119e82612179565b50600081146111c15760006111b161232a565b90506111bf82826001612358565b505b5b5050565b60008060009054906101000a900473ffffffffffffffffffffffffffffffffffffffff16905090565b60006001905090565b60036020528060005260406000206000915054906101000a900460ff1681565b611220612171565b73ffffffffffffffffffffffffffffffffffffffff166000809054906101000a900473ffffffffffffffffffffffffffffffffffffffff1673ffffffffffffffffffffffffffffffffffffffff16146112e1576040517f08c379a00000000000000000000000000000000000000000000000000000000081526004018080602001828103825260208152602001807f4f776e61626c653a2063616c6c6572206973206e6f7420746865206f776e657281525060200191505060405180910390fd5b600073ffffffffffffffffffffffffffffffffffffffff168173ffffffffffffffffffffffffffffffffffffffff161415611384576040517f08c379a00000000000000000000000000000000000000000000000000000000081526004018080602001828103825260188152602001807f41646472657373206d7573742062652070726f7669646564000000000000000081525060200191505060405180910390fd5b60018060008373ffffffffffffffffffffffffffffffffffffffff1673ffffffffffffffffffffffffffffffffffffffff16815260200190815260200160002060006101000a81548160ff02191690831515021790555050565b600460019054906101000a900473ffffffffffffffffffffffffffffffffffffffff1681565b60026020528060005260406000206000915054906101000a900460ff1681565b61142c612171565b73ffffffffffffffffffffffffffffffffffffffff166000809054906101000a900473ffffffffffffffffffffffffffffffffffffffff1673ffffffffffffffffffffffffffffffffffffffff16146114ed576040517f08c379a00000000000000000000000000000000000000000000000000000000081526004018080602001828103825260208152602001807f4f776e61626c653a2063616c6c6572206973206e6f7420746865206f776e657281525060200191505060405180910390fd5b6000735c69bee701ef814a2b6a3edd4b1652cb9cc5aa6f73ffffffffffffffffffffffffffffffffffffffff1663e6a4390584846040518363ffffffff1660e01b8152600401808373ffffffffffffffffffffffffffffffffffffffff1673ffffffffffffffffffffffffffffffffffffffff1681526020018273ffffffffffffffffffffffffffffffffffffffff1673ffffffffffffffffffffffffffffffffffffffff1681526020019250505060206040518083038186803b1580156115b457600080fd5b505afa1580156115c8573d6000803e3d6000fd5b505050506040513d60208110156115de57600080fd5b81019080805190602001909291905050509050600073ffffffffffffffffffffffffffffffffffffffff168173ffffffffffffffffffffffffffffffffffffffff16141561172b57735c69bee701ef814a2b6a3edd4b1652cb9cc5aa6f73ffffffffffffffffffffffffffffffffffffffff1663c9c6539684846040518363ffffffff1660e01b8152600401808373ffffffffffffffffffffffffffffffffffffffff1673ffffffffffffffffffffffffffffffffffffffff1681526020018273ffffffffffffffffffffffffffffffffffffffff1673ffffffffffffffffffffffffffffffffffffffff16815260200192505050602060405180830381600087803b1580156116ed57600080fd5b505af1158015611701573d6000803e3d6000fd5b505050506040513d602081101561171757600080fd5b810190808051906020019092919050505090505b80600460016101000a81548173ffffffffffffffffffffffffffffffffffffffff021916908373ffffffffffffffffffffffffffffffffffffffff16021790555081600660006101000a81548173ffffffffffffffffffffffffffffffffffffffff021916908373ffffffffffffffffffffffffffffffffffffffff16021790555082600560006101000a81548173ffffffffffffffffffffffffffffffffffffffff021916908373ffffffffffffffffffffffffffffffffffffffff16021790555060008173ffffffffffffffffffffffffffffffffffffffff16630dfe16816040518163ffffffff1660e01b815260040160206040518083038186803b15801561183657600080fd5b505afa15801561184a573d6000803e3d6000fd5b505050506040513d602081101561186057600080fd5b810190808051906020019092919050505090508273ffffffffffffffffffffffffffffffffffffffff168173ffffffffffffffffffffffffffffffffffffffff1614156118c7576001600460156101000a81548160ff0219169083151502179055506118e3565b6000600460156101000a81548160ff0219169083151502179055505b50505050565b6118f1612171565b73ffffffffffffffffffffffffffffffffffffffff166000809054906101000a900473ffffffffffffffffffffffffffffffffffffffff1673ffffffffffffffffffffffffffffffffffffffff16146119b2576040517f08c379a00000000000000000000000000000000000000000000000000000000081526004018080602001828103825260208152602001807f4f776e61626c653a2063616c6c6572206973206e6f7420746865206f776e657281525060200191505060405180910390fd5b600073ffffffffffffffffffffffffffffffffffffffff168173ffffffffffffffffffffffffffffffffffffffff161415611a55576040517f08c379a00000000000000000000000000000000000000000000000000000000081526004018080602001828103825260188152602001807f41646472657373206d7573742062652070726f7669646564000000000000000081525060200191505060405180910390fd5b600160008273ffffffffffffffffffffffffffffffffffffffff1673ffffffffffffffffffffffffffffffffffffffff16815260200190815260200160002060006101000a81549060ff021916905550565b600460159054906101000a900460ff1681565b611ac2612171565b73ffffffffffffffffffffffffffffffffffffffff166000809054906101000a900473ffffffffffffffffffffffffffffffffffffffff1673ffffffffffffffffffffffffffffffffffffffff1614611b83576040517f08c379a00000000000000000000000000000000000000000000000000000000081526004018080602001828103825260208152602001807f4f776e61626c653a2063616c6c6572206973206e6f7420746865206f776e657281525060200191505060405180910390fd5b600073ffffffffffffffffffffffffffffffffffffffff168173ffffffffffffffffffffffffffffffffffffffff161415611c09576040517f08c379a000000000000000000000000000000000000000000000000000000000815260040180806020018281038252602681526020018061290f6026913960400191505060405180910390fd5b8073ffffffffffffffffffffffffffffffffffffffff166000809054906101000a900473ffffffffffffffffffffffffffffffffffffffff1673ffffffffffffffffffffffffffffffffffffffff167f8be0079c531659141344cd1fd0a4f28419497f9722a3daafe3b4186f6b6457e060405160405180910390a3806000806101000a81548173ffffffffffffffffffffffffffffffffffffffff021916908373ffffffffffffffffffffffffffffffffffffffff16021790555050565b611ccf612171565b73ffffffffffffffffffffffffffffffffffffffff166000809054906101000a900473ffffffffffffffffffffffffffffffffffffffff1673ffffffffffffffffffffffffffffffffffffffff1614611d90576040517f08c379a00000000000000000000000000000000000000000000000000000000081526004018080602001828103825260208152602001807f4f776e61626c653a2063616c6c6572206973206e6f7420746865206f776e657281525060200191505060405180910390fd5b600073ffffffffffffffffffffffffffffffffffffffff168173ffffffffffffffffffffffffffffffffffffffff161415611e33576040517f08c379a00000000000000000000000000000000000000000000000000000000081526004018080602001828103825260188152602001807f41646472657373206d7573742062652070726f7669646564000000000000000081525060200191505060405180910390fd5b6001600360008373ffffffffffffffffffffffffffffffffffffffff1673ffffffffffffffffffffffffffffffffffffffff16815260200190815260200160002060006101000a81548160ff02191690831515021790555050565b600260008373ffffffffffffffffffffffffffffffffffffffff1673ffffffffffffffffffffffffffffffffffffffff16815260200190815260200160002060009054906101000a900460ff1680611f2f5750600260008273ffffffffffffffffffffffffffffffffffffffff1673ffffffffffffffffffffffffffffffffffffffff16815260200190815260200160002060009054906101000a900460ff165b15611f3957612127565b600460019054906101000a900473ffffffffffffffffffffffffffffffffffffffff1673ffffffffffffffffffffffffffffffffffffffff168273ffffffffffffffffffffffffffffffffffffffff16148015611fdf5750600360008273ffffffffffffffffffffffffffffffffffffffff1673ffffffffffffffffffffffffffffffffffffffff16815260200190815260200160002060009054906101000a900460ff165b156120d8576000611fef836124c9565b90506001681b1ae4d6e2ef5000008161200457fe5b0481111561207a576040517f08c379a00000000000000000000000000000000000000000000000000000000081526004018080602001828103825260138152602001807f416e7469426f743a2050617374206c696d69740000000000000000000000000081525060200191505060405180910390fd5b6000600360008473ffffffffffffffffffffffffffffffffffffffff1673ffffffffffffffffffffffffffffffffffffffff16815260200190815260200160002060006101000a81548160ff02191690831515021790555050612127565b6120e182612179565b506120eb81612179565b5060006120f7836124c9565b90506000811461212557600061210b61232a565b90506121178382612742565b61212382826000612358565b505b505b5050565b60016020528060005260406000206000915054906101000a900460ff1681565b600560009054906101000a900473ffffffffffffffffffffffffffffffffffffffff1681565b600033905090565b6000600460019054906101000a900473ffffffffffffffffffffffffffffffffffffffff1673ffffffffffffffffffffffffffffffffffffffff168273ffffffffffffffffffffffffffffffffffffffff1614156121da5760009050612325565b600080600854141580156121f057506008544210155b905080612265576040517f08c379a00000000000000000000000000000000000000000000000000000000081526004018080602001828103825260148152602001807f416e7469426f743a206e6f74207374617274656400000000000000000000000081525060200191505060405180910390fd5b600460009054906101000a900460ff16806122ca5750600160008473ffffffffffffffffffffffffffffffffffffffff1673ffffffffffffffffffffffffffffffffffffffff16815260200190815260200160002060009054906101000a900460ff16155b61231f576040517f08c379a00000000000000000000000000000000000000000000000000000000081526004018080602001828103825260218152602001806129586021913960400191505060405180910390fd5b60009150505b919050565b6000806007549050600081141561234c57436007819055506000915050612355565b60075443039150505b90565b600070010000000000000000000000000000000090506001601402831061237f5780612394565b6001681b1ae4d6e2ef5000008161239257fe5b045b9050811580156123a75750600160040283105b6123b157806123c6565b6001680d8d726b7177a80000816123c457fe5b045b9050811580156123d95750600160000283105b6123e357806123e6565b60005b9050600483101561246a576009543a1115612469576040517f08c379a000000000000000000000000000000000000000000000000000000000815260040180806020018281038252601b8152602001807f416e7469426f743a2067617320707269636520746f6f2068696768000000000081525060200191505060405180910390fd5b5b808411156124c3576040517f08c379a00000000000000000000000000000000000000000000000000000000081526004018080602001828103825260238152602001806129356023913960400191505060405180910390fd5b50505050565b6000600460019054906101000a900473ffffffffffffffffffffffffffffffffffffffff1673ffffffffffffffffffffffffffffffffffffffff168273ffffffffffffffffffffffffffffffffffffffff16141561273857600080600460019054906101000a900473ffffffffffffffffffffffffffffffffffffffff1673ffffffffffffffffffffffffffffffffffffffff16630902f1ac6040518163ffffffff1660e01b815260040160606040518083038186803b15801561258c57600080fd5b505afa1580156125a0573d6000803e3d6000fd5b505050506040513d60608110156125b657600080fd5b81019080805190602001909291908051906020019092919080519060200190929190505050506dffffffffffffffffffffffffffff1691506dffffffffffffffffffffffffffff1691506000600460159054906101000a900460ff1661261c578161261e565b825b905061272e81600660009054906101000a900473ffffffffffffffffffffffffffffffffffffffff1673ffffffffffffffffffffffffffffffffffffffff166370a08231600460019054906101000a900473ffffffffffffffffffffffffffffffffffffffff166040518263ffffffff1660e01b8152600401808273ffffffffffffffffffffffffffffffffffffffff1673ffffffffffffffffffffffffffffffffffffffff16815260200191505060206040518083038186803b1580156126e557600080fd5b505afa1580156126f9573d6000803e3d6000fd5b505050506040513d602081101561270f57600080fd5b810190808051906020019092919050505061280490919063ffffffff16565b935050505061273d565b600090505b919050565b6001600502811080156127a35750600460019054906101000a900473ffffffffffffffffffffffffffffffffffffffff1673ffffffffffffffffffffffffffffffffffffffff168273ffffffffffffffffffffffffffffffffffffffff1614155b156128005760018060008473ffffffffffffffffffffffffffffffffffffffff1673ffffffffffffffffffffffffffffffffffffffff16815260200190815260200160002060006101000a81548160ff0219169083151502179055505b5050565b600061284683836040518060400160405280601e81526020017f536166654d6174683a207375627472616374696f6e206f766572666c6f77000081525061284e565b905092915050565b60008383111582906128fb576040517f08c379a00000000000000000000000000000000000000000000000000000000081526004018080602001828103825283818151815260200191508051906020019080838360005b838110156128c05780820151818401526020810190506128a5565b50505050905090810190601f1680156128ed5780820380516001836020036101000a031916815260200191505b509250505060405180910390fd5b506000838503905080915050939250505056fe4f776e61626c653a206e6577206f776e657220697320746865207a65726f2061646472657373416e7469426f743a2043617020666f72206c6f7720626c6f636b732072656163686564416e7469426f743a20426c61636b6c697374202d20636f6e74616374207465616da26469706673582212201b1ba24df9790f1dda9f6b7e0777be087abd2e6199f58adbaf508b5b0144bbad64736f6c63430006060033",
  "immutableReferences": {},
  "source": "pragma solidity >=0.6.0 <0.8.0;\n\nimport \"@openzeppelin/contracts/access/Ownable.sol\";\nimport \"@openzeppelin/contracts/utils/EnumerableSet.sol\";\nimport \"@openzeppelin/contracts/token/ERC20/IERC20.sol\";\nimport '@uniswap/v2-core/contracts/interfaces/IUniswapV2Pair.sol';\nimport \"@openzeppelin/contracts/math/SafeMath.sol\";\nimport \"./ISafetyLocker.sol\";\nimport \"../../common/Constants.sol\";\n\ncontract EvnAntiBot is ISafetyLocker, Ownable {\n    using SafeMath for uint256;\n    using EnumerableSet for EnumerableSet.AddressSet;\n\n    mapping (address=>bool) public blacklist;\n    mapping (address=>bool) public superWhitelist;\n    mapping (address=>bool) public whitelist;\n    bool public ignoreBlacklist = false;\n    address public wethPool;\n    bool public isWethToken0;\n    address public token;\n    address public weth;\n\n    // First few blocks limitations\n    uint initBlockNo;\n    uint public startTime;\n    uint maxGasPrice;\n\n    uint constant CAP_RATIO = 1; // TODO: CHANGE FOR PROD to 1!\n    uint constant BLOCK_RATIO = 1;\n    // uint constant CAP_RATIO = 40; // TODO: CHANGE FOR PROD to 1!\n    // uint constant BLOCK_RATIO = 4;\n    uint constant CAP1 = 100* 2.5 * 10 ** 18 / CAP_RATIO; //TODO: Remove 100*\n    uint constant CAP2 = 100* 5 * 10 ** 18 / CAP_RATIO;\n    uint constant BLOCK_GAS_PRICE_CUT_OFF = 4;\n    // uint constant BLOCK_US_NO_BUY = 2 * BLOCK_RATIO;\n    uint constant BLOCK_US_NO_BUY = 0 * BLOCK_RATIO;\n    uint constant BLOCK_US_BUY_LIMIT = 4 * BLOCK_RATIO;\n    uint constant BLOCK_ALL_BUY_LIMIT = 20 * BLOCK_RATIO;\n    uint constant NO_SELL_BLOCK = 5 * BLOCK_RATIO;\n    uint constant DEFAULT_MAX_GAS_PRICE = 300000000000; // 350 gwei\n\n    function getBlockOffset() internal returns (uint) {\n        uint ib = initBlockNo;\n        if (ib == 0) {\n            initBlockNo = block.number;\n            return 0;\n        }\n        return block.number - initBlockNo;\n    }\n\n    function doAutoBlackList(address _address, uint blockOffset) internal {\n        /*\n        Auto blacklist the address in the nosell blocks\n        */\n        if (blockOffset < NO_SELL_BLOCK && _address != wethPool) {\n            blacklist[_address] = true;\n        }\n    }\n    \n    // Cap on gas price? One hour beforehand ~ 350\n    // Block 1 to 4, gas price limit\n    // Block 1&2 and two only EVNY contract can buy cap 5ETH. Uniswap buy blocked\n    // Block 3&4 Uniswap limit 2.5 ETH, website 5 ETH (evn buy)\n    // Block 5 to 20, everything 5 ETH\n    // After block 20, lift all caps\n\n    // Block 3&4&5 no sell.\n\n    function addWethPool(address _token, address _weth) external onlyOwner() {\n        address pool = Constants.uniV2Factory.getPair(_token, _weth);\n        if (pool == address(0)) {\n            pool = Constants.uniV2Factory.createPair(_token, _weth);\n        }\n        wethPool = pool;\n        weth = _weth;\n        token = _token;\n        address t0 = IUniswapV2Pair(pool).token0();\n        if (t0 == _weth) {\n            isWethToken0 = true;\n        } else {\n            isWethToken0 = false;\n        }\n    }\n\n    function setIgnoreBlacklist(bool shouldIgnore) external onlyOwner() {\n        ignoreBlacklist = shouldIgnore;\n    }\n\n    function addSuperWhitelist(address _address) external onlyOwner() {\n        require(_address != address(0), \"Address must be provided\");\n        superWhitelist[_address] = true;\n    }\n\n    function removeSuperWhitelist(address _address) external onlyOwner() {\n        require(_address != address(0), \"Address must be provided\");\n        delete(superWhitelist[_address]);\n    }\n\n    function addWhitelist(address _address) external onlyOwner() {\n        require(_address != address(0), \"Address must be provided\");\n        whitelist[_address] = true;\n    }\n\n    function removeWhitelist(address _address) external onlyOwner() {\n        require(_address != address(0), \"Address must be provided\");\n        delete(whitelist[_address]);\n    }\n\n    function addBlacklist(address _address) external onlyOwner() {\n        require(_address != address(0), \"Address must be provided\");\n        blacklist[_address] = true;\n    }\n\n    function removeBlacklist(address _address) external onlyOwner() {\n        require(_address != address(0), \"Address must be provided\");\n        delete(blacklist[_address]);\n    }\n\n    function open(uint _timestamp, uint _maxGasPrice) external onlyOwner() {\n        require(_timestamp != 0, \"Bad _timestamp\");\n        require(_maxGasPrice >= DEFAULT_MAX_GAS_PRICE, \"_maxGasPrice too low\");\n        startTime = _timestamp;\n        maxGasPrice = _maxGasPrice;\n    }\n\n    /**\n     * Following measures are considered here:\n     * 1. Only whitelist flags means only allow whitelist transactions.\n     * 2. If the auto blacklist flag is set, automatically blacklist people after buy.\n     * 3. If the ignore blacklist flag is set, ignore the blacklist. We blacklist offenders on the main\n     *    contract and open it up here.\n     * 4. If cap is set limit buy to the cap.\n     * Note that this is a temporary safety locker that would be removed after a while, so we don't\n     * necessarily care about gas saving.\n     */\n    function verifyTransfer(address source, address dest) external override {\n        if (superWhitelist[source] || superWhitelist[dest]) return;\n        if (source == wethPool && whitelist[dest]) { // Whitelist gets one buy\n            uint256 amount = _buyAmount(source);\n            require(amount<=CAP2, \"AntiBot: Past limit\");\n            whitelist[dest] = false;\n            return;\n        }\n        _verifyPreTransfer(source);\n        _verifyPreTransfer(dest);\n        uint256 amount = _buyAmount(source);\n        if (amount != 0) {\n            uint bo = getBlockOffset();\n            doAutoBlackList(dest, bo); // Its a buy so source is the pool\n            _verifyAmount(amount, bo, false);\n        }\n    }\n\n    function verifyUserAddress(address user, uint256 amount) external override {\n        if (superWhitelist[user]) return;\n        _verifyPreTransfer(user);\n        if (amount != 0) {\n            uint bo = getBlockOffset();\n            _verifyAmount(amount, bo, true);\n        }\n    }\n\n    /**\n     * Return true should shortcircuit. Returns true for whitelist\n     */\n    function _verifyPreTransfer(address source) internal view returns (bool) {\n        if (source == wethPool) { return false; }\n        bool started = startTime != 0 && block.timestamp >= startTime;\n        // Check if started\n        require(started, \"AntiBot: not started\");\n        require(ignoreBlacklist || !blacklist[source], \"AntiBot: Blacklist - contact team\");\n        return false;\n    }\n\n    // Block 1 to 4, gas price limit\n    // Block 1&2 and two only EVNY contract can buy cap 5ETH. Uniswap buy blocked\n    // Block 3&4 Uniswap limit 2.5 ETH, website 5 ETH (evn buy)\n    // Block 5 to 20, everything 5 ETH\n    // After block 20, lift all caps\n    function _verifyAmount(uint256 amount, uint blockOffset, bool isLiqAdder) internal virtual\n        // view\n        {\n        uint cap = 2 ** 128; // No cap by default\n        cap = blockOffset < BLOCK_ALL_BUY_LIMIT ? CAP2 : cap;\n        cap = !isLiqAdder && (blockOffset < BLOCK_US_BUY_LIMIT) ? CAP1 : cap;\n        cap = !isLiqAdder && (blockOffset < BLOCK_US_NO_BUY) ? 0 : cap;\n        if (blockOffset < BLOCK_GAS_PRICE_CUT_OFF) {\n            require(tx.gasprice <= maxGasPrice, \"AntiBot: gas price too high\");\n        }\n\n        require(amount <= cap, \"AntiBot: Cap for low blocks reached\");\n    }\n\n    function _buyAmount(address source) internal view virtual returns (uint) {\n        if (source == wethPool) {\n            (uint256 reserve0, uint256 reserve1, /*uint32 _*/) = IUniswapV2Pair(wethPool).getReserves();\n            uint256 reserve = isWethToken0 ? reserve0 : reserve1;\n            return IERC20(weth).balanceOf(wethPool).sub(reserve);\n        }\n        return 0;\n    }\n\n    function IsSafetyLocker() external pure override returns(bool) { return true; }\n}",
  "sourcePath": "/home/naiemk/nk/open-staking/contracts/token/safety/AntiBot.sol",
  "compiler": {
    "name": "solc",
    "version": "0.6.6+commit.6c089d02.Emscripten.clang"
  },
  "schemaVersion": "3.3.2",
  "updatedAt": "2021-03-05T18:32:36.343Z",
  "devdoc": {
    "methods": {
      "owner()": {
        "details": "Returns the address of the current owner."
      },
      "renounceOwnership()": {
        "details": "Leaves the contract without owner. It will not be possible to call `onlyOwner` functions anymore. Can only be called by the current owner.     * NOTE: Renouncing ownership will leave the contract without an owner, thereby removing any functionality that is only available to the owner."
      },
      "transferOwnership(address)": {
        "details": "Transfers ownership of the contract to a new account (`newOwner`). Can only be called by the current owner."
      }
    }
  },
  "userdoc": {
    "methods": {
      "verifyTransfer(address,address)": {
        "notice": "Following measures are considered here: 1. Only whitelist flags means only allow whitelist transactions. 2. If the auto blacklist flag is set, automatically blacklist people after buy. 3. If the ignore blacklist flag is set, ignore the blacklist. We blacklist offenders on the main   contract and open it up here. 4. If cap is set limit buy to the cap. Note that this is a temporary safety locker that would be removed after a while, so we don't necessarily care about gas saving."
      }
    }
  }
}