{
  "contractName": "FestakedWithReward",
  "abi": [
    {
      "inputs": [
        {
          "internalType": "string",
          "name": "name_",
          "type": "string"
        },
        {
          "internalType": "address",
          "name": "tokenAddress_",
          "type": "address"
        },
        {
          "internalType": "address",
          "name": "rewardTokenAddress_",
          "type": "address"
        },
        {
          "internalType": "uint256",
          "name": "stakingStarts_",
          "type": "uint256"
        },
        {
          "internalType": "uint256",
          "name": "stakingEnds_",
          "type": "uint256"
        },
        {
          "internalType": "uint256",
          "name": "withdrawStarts_",
          "type": "uint256"
        },
        {
          "internalType": "uint256",
          "name": "withdrawEnds_",
          "type": "uint256"
        },
        {
          "internalType": "uint256",
          "name": "stakingCap_",
          "type": "uint256"
        }
      ],
      "stateMutability": "nonpayable",
      "type": "constructor"
    },
    {
      "anonymous": false,
      "inputs": [
        {
          "indexed": true,
          "internalType": "address",
          "name": "token",
          "type": "address"
        },
        {
          "indexed": true,
          "internalType": "address",
          "name": "rewardToken",
          "type": "address"
        },
        {
          "indexed": true,
          "internalType": "address",
          "name": "staker_",
          "type": "address"
        },
        {
          "indexed": false,
          "internalType": "uint256",
          "name": "amount_",
          "type": "uint256"
        },
        {
          "indexed": false,
          "internalType": "uint256",
          "name": "reward_",
          "type": "uint256"
        }
      ],
      "name": "PaidOut",
      "type": "event"
    },
    {
      "anonymous": false,
      "inputs": [
        {
          "indexed": true,
          "internalType": "address",
          "name": "token",
          "type": "address"
        },
        {
          "indexed": true,
          "internalType": "address",
          "name": "staker_",
          "type": "address"
        },
        {
          "indexed": false,
          "internalType": "uint256",
          "name": "requestedAmount_",
          "type": "uint256"
        },
        {
          "indexed": false,
          "internalType": "uint256",
          "name": "stakedAmount_",
          "type": "uint256"
        }
      ],
      "name": "Staked",
      "type": "event"
    },
    {
      "inputs": [
        {
          "internalType": "uint256",
          "name": "rewardAmount",
          "type": "uint256"
        },
        {
          "internalType": "uint256",
          "name": "withdrawableAmount",
          "type": "uint256"
        }
      ],
      "name": "addReward",
      "outputs": [
        {
          "internalType": "bool",
          "name": "",
          "type": "bool"
        }
      ],
      "stateMutability": "nonpayable",
      "type": "function"
    },
    {
      "inputs": [],
      "name": "earlyWithdrawReward",
      "outputs": [
        {
          "internalType": "uint256",
          "name": "",
          "type": "uint256"
        }
      ],
      "stateMutability": "view",
      "type": "function"
    },
    {
      "inputs": [],
      "name": "name",
      "outputs": [
        {
          "internalType": "string",
          "name": "",
          "type": "string"
        }
      ],
      "stateMutability": "view",
      "type": "function"
    },
    {
      "inputs": [],
      "name": "rewardBalance",
      "outputs": [
        {
          "internalType": "uint256",
          "name": "",
          "type": "uint256"
        }
      ],
      "stateMutability": "view",
      "type": "function"
    },
    {
      "inputs": [],
      "name": "rewardSetter",
      "outputs": [
        {
          "internalType": "address",
          "name": "",
          "type": "address"
        }
      ],
      "stateMutability": "view",
      "type": "function"
    },
    {
      "inputs": [],
      "name": "rewardState",
      "outputs": [
        {
          "internalType": "uint256",
          "name": "rewardBalance",
          "type": "uint256"
        },
        {
          "internalType": "uint256",
          "name": "rewardsTotal",
          "type": "uint256"
        },
        {
          "internalType": "uint256",
          "name": "earlyWithdrawReward",
          "type": "uint256"
        }
      ],
      "stateMutability": "view",
      "type": "function"
    },
    {
      "inputs": [],
      "name": "rewardTokenAddress",
      "outputs": [
        {
          "internalType": "address",
          "name": "",
          "type": "address"
        }
      ],
      "stateMutability": "view",
      "type": "function"
    },
    {
      "inputs": [],
      "name": "rewardsTotal",
      "outputs": [
        {
          "internalType": "uint256",
          "name": "",
          "type": "uint256"
        }
      ],
      "stateMutability": "view",
      "type": "function"
    },
    {
      "inputs": [
        {
          "internalType": "uint256",
          "name": "amount",
          "type": "uint256"
        }
      ],
      "name": "stake",
      "outputs": [
        {
          "internalType": "bool",
          "name": "",
          "type": "bool"
        }
      ],
      "stateMutability": "nonpayable",
      "type": "function"
    },
    {
      "inputs": [
        {
          "internalType": "address",
          "name": "staker",
          "type": "address"
        },
        {
          "internalType": "uint256",
          "name": "amount",
          "type": "uint256"
        }
      ],
      "name": "stakeFor",
      "outputs": [
        {
          "internalType": "bool",
          "name": "",
          "type": "bool"
        }
      ],
      "stateMutability": "nonpayable",
      "type": "function"
    },
    {
      "inputs": [
        {
          "internalType": "address",
          "name": "account",
          "type": "address"
        }
      ],
      "name": "stakeOf",
      "outputs": [
        {
          "internalType": "uint256",
          "name": "",
          "type": "uint256"
        }
      ],
      "stateMutability": "view",
      "type": "function"
    },
    {
      "inputs": [],
      "name": "stakeState",
      "outputs": [
        {
          "internalType": "uint256",
          "name": "stakedTotal",
          "type": "uint256"
        },
        {
          "internalType": "uint256",
          "name": "stakingCap",
          "type": "uint256"
        },
        {
          "internalType": "uint256",
          "name": "stakedBalance",
          "type": "uint256"
        },
        {
          "internalType": "uint256",
          "name": "withdrawnEarly",
          "type": "uint256"
        }
      ],
      "stateMutability": "view",
      "type": "function"
    },
    {
      "inputs": [],
      "name": "stakedBalance",
      "outputs": [
        {
          "internalType": "uint256",
          "name": "",
          "type": "uint256"
        }
      ],
      "stateMutability": "view",
      "type": "function"
    },
    {
      "inputs": [],
      "name": "stakedTotal",
      "outputs": [
        {
          "internalType": "uint256",
          "name": "",
          "type": "uint256"
        }
      ],
      "stateMutability": "view",
      "type": "function"
    },
    {
      "inputs": [],
      "name": "stakingCap",
      "outputs": [
        {
          "internalType": "uint256",
          "name": "",
          "type": "uint256"
        }
      ],
      "stateMutability": "view",
      "type": "function"
    },
    {
      "inputs": [],
      "name": "stakingEnds",
      "outputs": [
        {
          "internalType": "uint256",
          "name": "",
          "type": "uint256"
        }
      ],
      "stateMutability": "view",
      "type": "function"
    },
    {
      "inputs": [],
      "name": "stakingStarts",
      "outputs": [
        {
          "internalType": "uint256",
          "name": "",
          "type": "uint256"
        }
      ],
      "stateMutability": "view",
      "type": "function"
    },
    {
      "inputs": [],
      "name": "tokenAddress",
      "outputs": [
        {
          "internalType": "address",
          "name": "",
          "type": "address"
        }
      ],
      "stateMutability": "view",
      "type": "function"
    },
    {
      "inputs": [],
      "name": "withdrawEnds",
      "outputs": [
        {
          "internalType": "uint256",
          "name": "",
          "type": "uint256"
        }
      ],
      "stateMutability": "view",
      "type": "function"
    },
    {
      "inputs": [],
      "name": "withdrawStarts",
      "outputs": [
        {
          "internalType": "uint256",
          "name": "",
          "type": "uint256"
        }
      ],
      "stateMutability": "view",
      "type": "function"
    },
    {
      "inputs": [
        {
          "internalType": "uint256",
          "name": "withdrawableAmount",
          "type": "uint256"
        }
      ],
      "name": "addMarginalReward",
      "outputs": [],
      "stateMutability": "nonpayable",
      "type": "function"
    },
    {
      "inputs": [
        {
          "internalType": "uint256",
          "name": "amount",
          "type": "uint256"
        }
      ],
      "name": "withdraw",
      "outputs": [
        {
          "internalType": "bool",
          "name": "",
          "type": "bool"
        }
      ],
      "stateMutability": "nonpayable",
      "type": "function"
    }
  ],
  "bytecode": "0x60806040523480156200001157600080fd5b50604051620015e6380380620015e683398181016040526101008110156200003857600080fd5b81019080805160405193929190846401000000008211156200005957600080fd5b838201915060208201858111156200007057600080fd5b82518660018202830111640100000000821117156200008e57600080fd5b8083526020830192505050908051906020019080838360005b83811015620000c4578082015181840152602081019050620000a7565b50505050905090810190601f168015620000f25780820380516001836020036101000a031916815260200191505b5060405260200180519060200190929190805190602001909291908051906020019092919080519060200190929190805190602001909291908051906020019092919080519060200190929190505050878786868686868660019080519060200190620001619291906200058a565b50600073ffffffffffffffffffffffffffffffffffffffff168673ffffffffffffffffffffffffffffffffffffffff16141562000206576040517f08c379a00000000000000000000000000000000000000000000000000000000081526004018080602001828103825260148152602001807f46657374616b696e673a2030206164647265737300000000000000000000000081525060200191505060405180910390fd5b85600260006101000a81548173ffffffffffffffffffffffffffffffffffffffff021916908373ffffffffffffffffffffffffffffffffffffffff16021790555060008511620002a2576040517f08c379a00000000000000000000000000000000000000000000000000000000081526004018080602001828103825260228152602001806200159c6022913960400191505060405180910390fd5b42851015620002b85742600381905550620002c0565b846003819055505b6003548410156200031d576040517f08c379a0000000000000000000000000000000000000000000000000000000008152600401808060200182810382526033815260200180620015006033913960400191505060405180910390fd5b8360048190555060045483101562000381576040517f08c379a0000000000000000000000000000000000000000000000000000000008152600401808060200182810382526034815260200180620015686034913960400191505060405180910390fd5b82600581905550600554821015620003e5576040517f08c379a0000000000000000000000000000000000000000000000000000000008152600401808060200182810382526035815260200180620015336035913960400191505060405180910390fd5b81600681905550600081101562000448576040517f08c379a0000000000000000000000000000000000000000000000000000000008152600401808060200182810382526028815260200180620015be6028913960400191505060405180910390fd5b8060078190555050505050505050600073ffffffffffffffffffffffffffffffffffffffff168673ffffffffffffffffffffffffffffffffffffffff161415620004fa576040517f08c379a000000000000000000000000000000000000000000000000000000000815260040180806020018281038252601b8152602001807f46657374616b696e673a2030207265776172642061646472657373000000000081525060200191505060405180910390fd5b85600d60006101000a81548173ffffffffffffffffffffffffffffffffffffffff021916908373ffffffffffffffffffffffffffffffffffffffff16021790555033601160006101000a81548173ffffffffffffffffffffffffffffffffffffffff021916908373ffffffffffffffffffffffffffffffffffffffff160217905550505050505050505062000639565b828054600181600116156101000203166002900490600052602060002090601f016020900481019282601f10620005cd57805160ff1916838001178555620005fe565b82800160010185558215620005fe579182015b82811115620005fd578251825591602001919060010190620005e0565b5b5090506200060d919062000611565b5090565b6200063691905b808211156200063257600081600090555060010162000618565b5090565b90565b610eb780620006496000396000f3fe608060405234801561001057600080fd5b50600436106101425760003560e01c806361539de7116100b8578063a694fc3a1161007c578063a694fc3a1461051f578063aa5c3ab414610565578063b410e2a114610583578063bb2d7f3a146105a1578063d66692a7146105bf578063eacebf61146105dd57610142565b806361539de7146103ea5780636d68c7d41461043457806375c93bb9146104525780638c09a2f9146104a25780639d76ea58146104d557610142565b80632ee409081161010a5780632ee40908146102a65780633f7fd60a1461030c578063426233601461032a57806344c370d314610382578063582c7928146103a05780635b9f0016146103cc57610142565b806306fdde0314610147578063125f9e33146101ca57806321b13cdf146102145780632853c542146102325780632e1a7d4d14610260575b600080fd5b61014f6105fb565b6040518080602001828103825283818151815260200191508051906020019080838360005b8381101561018f578082015181840152602081019050610174565b50505050905090810190601f1680156101bc5780820380516001836020036101000a031916815260200191505b509250505060405180910390f35b6101d261069d565b604051808273ffffffffffffffffffffffffffffffffffffffff1673ffffffffffffffffffffffffffffffffffffffff16815260200191505060405180910390f35b61021c6106c3565b6040518082815260200191505060405180910390f35b61025e6004803603602081101561024857600080fd5b81019080803590602001909291905050506106c9565b005b61028c6004803603602081101561027657600080fd5b8101908080359060200190929190505050610914565b604051808215151515815260200191505060405180910390f35b6102f2600480360360408110156102bc57600080fd5b81019080803573ffffffffffffffffffffffffffffffffffffffff16906020019092919080359060200190929190505050610ab7565b604051808215151515815260200191505060405180910390f35b610314610acc565b6040518082815260200191505060405180910390f35b61036c6004803603602081101561034057600080fd5b81019080803573ffffffffffffffffffffffffffffffffffffffff169060200190929190505050610ad9565b6040518082815260200191505060405180910390f35b61038a610b25565b6040518082815260200191505060405180910390f35b6103a8610b2b565b60405180848152602001838152602001828152602001935050505060405180910390f35b6103d4610b43565b6040518082815260200191505060405180910390f35b6103f2610b50565b604051808273ffffffffffffffffffffffffffffffffffffffff1673ffffffffffffffffffffffffffffffffffffffff16815260200191505060405180910390f35b61043c610b76565b6040518082815260200191505060405180910390f35b6104886004803603604081101561046857600080fd5b810190808035906020019092919080359060200190929190505050610b7c565b604051808215151515815260200191505060405180910390f35b6104aa610c77565b6040518085815260200184815260200183815260200182815260200194505050505060405180910390f35b6104dd610c95565b604051808273ffffffffffffffffffffffffffffffffffffffff1673ffffffffffffffffffffffffffffffffffffffff16815260200191505060405180910390f35b61054b6004803603602081101561053557600080fd5b8101908080359060200190929190505050610cbb565b604051808215151515815260200191505060405180910390f35b61056d610cd4565b6040518082815260200191505060405180910390f35b61058b610ce1565b6040518082815260200191505060405180910390f35b6105a9610ce7565b6040518082815260200191505060405180910390f35b6105c7610cf4565b6040518082815260200191505060405180910390f35b6105e5610d01565b6040518082815260200191505060405180910390f35b606060018054600181600116156101000203166002900480601f0160208091040260200160405190810160405280929190818152602001828054600181600116156101000203166002900480156106935780601f1061066857610100808354040283529160200191610693565b820191906000526020600020905b81548152906001019060200180831161067657829003601f168201915b5050505050905090565b600d60009054906101000a900473ffffffffffffffffffffffffffffffffffffffff1681565b60055481565b601160009054906101000a900473ffffffffffffffffffffffffffffffffffffffff1673ffffffffffffffffffffffffffffffffffffffff163373ffffffffffffffffffffffffffffffffffffffff161461078c576040517f08c379a00000000000000000000000000000000000000000000000000000000081526004018080602001828103825260168152602001807f46657374616b696e673a204e6f7420616c6c6f7765640000000000000000000081525060200191505060405180910390fd5b80600e6002018190555073__FestakedLib___________________________633362c3cd600d60009054906101000a900473ffffffffffffffffffffffffffffffffffffffff16600260009054906101000a900473ffffffffffffffffffffffffffffffffffffffff16306107ff610b43565b600e6040518663ffffffff1660e01b8152600401808673ffffffffffffffffffffffffffffffffffffffff1673ffffffffffffffffffffffffffffffffffffffff1681526020018573ffffffffffffffffffffffffffffffffffffffff1673ffffffffffffffffffffffffffffffffffffffff1681526020018473ffffffffffffffffffffffffffffffffffffffff1673ffffffffffffffffffffffffffffffffffffffff1681526020018381526020018281526020019550505050505060206040518083038186803b1580156108d557600080fd5b505af41580156108e9573d6000803e3d6000fd5b505050506040513d60208110156108ff57600080fd5b81019080805190602001909291905050505050565b600073__FestakedLib___________________________63f3ec689233600260009054906101000a900473ffffffffffffffffffffffffffffffffffffffff16600d60009054906101000a900473ffffffffffffffffffffffffffffffffffffffff16866005546006546004546008600e6040518a63ffffffff1660e01b8152600401808a73ffffffffffffffffffffffffffffffffffffffff1673ffffffffffffffffffffffffffffffffffffffff1681526020018973ffffffffffffffffffffffffffffffffffffffff1673ffffffffffffffffffffffffffffffffffffffff1681526020018873ffffffffffffffffffffffffffffffffffffffff1673ffffffffffffffffffffffffffffffffffffffff168152602001878152602001868152602001858152602001848152602001838152602001828152602001995050505050505050505060206040518083038186803b158015610a7557600080fd5b505af4158015610a89573d6000803e3d6000fd5b505050506040513d6020811015610a9f57600080fd5b81019080805190602001909291905050509050919050565b6000610ac4338484610d07565b905092915050565b6000600e60020154905090565b6000600860040160008373ffffffffffffffffffffffffffffffffffffffff1673ffffffffffffffffffffffffffffffffffffffff168152602001908152602001600020549050919050565b60075481565b600e8060000154908060010154908060020154905083565b6000600860020154905090565b601160009054906101000a900473ffffffffffffffffffffffffffffffffffffffff1681565b60035481565b600073__FestakedLib___________________________6356fb23a98484600d60009054906101000a900473ffffffffffffffffffffffffffffffffffffffff16600e6040518563ffffffff1660e01b8152600401808581526020018481526020018373ffffffffffffffffffffffffffffffffffffffff1673ffffffffffffffffffffffffffffffffffffffff16815260200182815260200194505050505060206040518083038186803b158015610c3457600080fd5b505af4158015610c48573d6000803e3d6000fd5b505050506040513d6020811015610c5e57600080fd5b8101908080519060200190929190505050905092915050565b60088060000154908060010154908060020154908060030154905084565b600260009054906101000a900473ffffffffffffffffffffffffffffffffffffffff1681565b600080339050610ccc818285610d07565b915050919050565b6000600e60000154905090565b60045481565b6000600e60010154905090565b6000600860000154905090565b60065481565b600073__FestakedLib___________________________6314b6043e858585600354600454600754600260009054906101000a900473ffffffffffffffffffffffffffffffffffffffff1660086040518963ffffffff1660e01b8152600401808973ffffffffffffffffffffffffffffffffffffffff1673ffffffffffffffffffffffffffffffffffffffff1681526020018873ffffffffffffffffffffffffffffffffffffffff1673ffffffffffffffffffffffffffffffffffffffff1681526020018781526020018681526020018581526020018481526020018373ffffffffffffffffffffffffffffffffffffffff1673ffffffffffffffffffffffffffffffffffffffff1681526020018281526020019850505050505050505060206040518083038186803b158015610e3d57600080fd5b505af4158015610e51573d6000803e3d6000fd5b505050506040513d6020811015610e6757600080fd5b81019080805190602001909291905050509050939250505056fea2646970667358221220360ca393d66e5bdeb2eb26abc1eb3a48c1509b3112a94b0596a6d0d20117b72d64736f6c6343000606003346657374616b696e673a207374616b696e6720656e64206d757374206265206166746572207374616b696e672073746172747346657374616b696e673a207769746864726177456e6473206d7573742062652061667465722077697468647261772073746172747346657374616b696e673a207769746864726177537461727473206d757374206265206166746572207374616b696e6720656e647346657374616b696e673a207a65726f207374616b696e672073746172742074696d6546657374616b696e673a207374616b696e674361702063616e6e6f74206265206e65676174697665",
  "immutableReferences": {},
  "source": "pragma solidity >=0.6.0 <0.8.0;\n\nimport \"./IFestaked.sol\";\nimport \"./FestakedOptimized.sol\";\n\nabstract contract RewardAdder is IFestaked {\n    address  public rewardTokenAddress;\n    FestakedLib.FestakeRewardState public rewardState;\n    address public rewardSetter; // Not using Ownable to save on deployment gas\n\n    function rewardsTotal() external view returns (uint256) {\n        return rewardState.rewardsTotal;\n    }\n\n    function earlyWithdrawReward() external view returns (uint256) {\n        return rewardState.earlyWithdrawReward;\n    }\n\n    function rewardBalance() external view returns (uint256) {\n        return rewardState.rewardBalance;\n    }\n\n    function addReward(uint256 rewardAmount, uint256 withdrawableAmount)\n    external returns (bool) {\n        return FestakedLib.addReward(rewardAmount, withdrawableAmount,\n            rewardTokenAddress, rewardState);\n    }\n}\n\ncontract FestakedWithReward is FestakedOptimized, RewardAdder {\n    constructor (string memory name_,\n        address tokenAddress_,\n        address rewardTokenAddress_,\n        uint stakingStarts_,\n        uint stakingEnds_,\n        uint withdrawStarts_,\n        uint withdrawEnds_,\n        uint256 stakingCap_) FestakedOptimized (\n            name_,\n            tokenAddress_,\n            stakingStarts_,\n            stakingEnds_,\n            withdrawStarts_,\n            withdrawEnds_,\n            stakingCap_\n        ) public {\n        require(rewardTokenAddress_ != address(0), \"Festaking: 0 reward address\");\n        rewardTokenAddress = rewardTokenAddress_;\n        rewardSetter = msg.sender;\n    }\n\n    function addMarginalReward(uint256 withdrawableAmount)\n    external {\n        require(msg.sender == rewardSetter, \"Festaking: Not allowed\");\n        rewardState.earlyWithdrawReward = withdrawableAmount;\n        FestakedLib.addMarginalReward(rewardTokenAddress, tokenAddress,\n            address(this), stakedBalance(), rewardState);\n    }\n\n    function withdraw(uint256 amount) virtual\n    public\n    returns (bool) {\n        return FestakedLib.withdraw(\n            msg.sender,\n            tokenAddress,\n            rewardTokenAddress,\n            amount,\n            withdrawStarts,\n            withdrawEnds,\n            stakingEnds,\n            stakeState,\n            rewardState);\n    }\n}",
  "sourcePath": "/home/naiemk/nk/open-staking/contracts/staking/FestakedWithReward.sol",
  "compiler": {
    "name": "solc",
    "version": "0.6.6+commit.6c089d02.Emscripten.clang"
  },
  "schemaVersion": "3.3.2",
  "updatedAt": "2021-03-10T07:48:54.386Z",
  "devdoc": {
    "methods": {}
  },
  "userdoc": {
    "methods": {
      "stake(uint256)": {
        "notice": "Requirements: - `amount` Amount to be staked"
      }
    }
  }
}